{
  "contractName": "Iot",
  "abi": [
    {
      "inputs": [],
      "stateMutability": "nonpayable",
      "type": "constructor"
    },
    {
      "anonymous": false,
      "inputs": [
        {
          "indexed": false,
          "internalType": "int8",
          "name": "state",
          "type": "int8"
        }
      ],
      "name": "turnOn",
      "type": "event"
    },
    {
      "inputs": [],
      "name": "on",
      "outputs": [
        {
          "internalType": "int8",
          "name": "",
          "type": "int8"
        }
      ],
      "stateMutability": "view",
      "type": "function"
    },
    {
      "inputs": [],
      "name": "owner",
      "outputs": [
        {
          "internalType": "address",
          "name": "",
          "type": "address"
        }
      ],
      "stateMutability": "view",
      "type": "function"
    },
    {
      "inputs": [
        {
          "internalType": "int8",
          "name": "newOn",
          "type": "int8"
        }
      ],
      "name": "setLed",
      "outputs": [],
      "stateMutability": "payable",
      "type": "function"
    },
    {
      "inputs": [],
      "name": "readLed",
      "outputs": [
        {
          "internalType": "int8",
          "name": "",
          "type": "int8"
        }
      ],
      "stateMutability": "view",
      "type": "function"
    }
  ],
  "bytecode": "0x608060405234801561001057600080fd5b5033600060016101000a81548173ffffffffffffffffffffffffffffffffffffffff021916908373ffffffffffffffffffffffffffffffffffffffff16021790555061030a806100616000396000f3fe60806040526004361061003f5760003560e01c806361df9af91461004457806367b7c034146100605780638da5cb5b1461008b578063a5480959146100b6575b600080fd5b61005e60048036038101906100599190610201565b6100e1565b005b34801561006c57600080fd5b5061007561019f565b6040516100829190610263565b60405180910390f35b34801561009757600080fd5b506100a06101b0565b6040516100ad9190610248565b60405180910390f35b3480156100c257600080fd5b506100cb6101d6565b6040516100d89190610263565b60405180910390f35b600060019054906101000a900473ffffffffffffffffffffffffffffffffffffffff1673ffffffffffffffffffffffffffffffffffffffff163373ffffffffffffffffffffffffffffffffffffffff161461013b57600080fd5b806000806101000a81548160ff021916908360000b60ff1602179055507f6814ba2289d2d4be3260c91f2e9940c17e58da538827d8e09a73195d861b4fc160008054906101000a900460000b6040516101949190610263565b60405180910390a150565b60008054906101000a900460000b81565b600060019054906101000a900473ffffffffffffffffffffffffffffffffffffffff1681565b60008060009054906101000a900460000b905090565b6000813590506101fb816102bd565b92915050565b60006020828403121561021357600080fd5b6000610221848285016101ec565b91505092915050565b6102338161027e565b82525050565b61024281610290565b82525050565b600060208201905061025d600083018461022a565b92915050565b60006020820190506102786000830184610239565b92915050565b60006102898261029d565b9050919050565b60008160000b9050919050565b600073ffffffffffffffffffffffffffffffffffffffff82169050919050565b6102c681610290565b81146102d157600080fd5b5056fea2646970667358221220fa62e4937bc71b7f363ca3de710ea8c5a41001e54e2472cab7ce98336ca4f83764736f6c63430008000033",
  "immutableReferences": {},
  "source": "// SPDX-License-Identifier: MIT\npragma solidity >=0.7.0 <0.8.7;\n\n//will be deployed by iot account\ncontract Iot {\n    //can only take value 1 or 0\n    int8 public on;\n    address public owner;\n\n    event turnOn(int8 state);\n\n    constructor() {\n        owner = msg.sender;\n    }\n\n    modifier onlyOwner() {\n        require(msg.sender == owner);\n        _;\n    }\n\n    function setLed(int8 newOn) public payable onlyOwner {\n        on = newOn;\n        emit turnOn(on);\n    }\n\n    function readLed() public view returns (int8) {\n        return on;\n    }\n}\n",
  "sourcePath": "/home/tien/DLT/ConsenSys/FinalProject/blockchain-developer-bootcamp-final-project/contracts/IoT.sol",
  "compiler": {
    "name": "solc",
    "version": "0.8.0+commit.c7dfd78e.Emscripten.clang"
  },
  "schemaVersion": "3.4.3",
  "updatedAt": "2022-01-13T18:13:29.522Z",
  "devdoc": {
    "kind": "dev",
    "methods": {},
    "version": 1
  },
  "userdoc": {
    "kind": "user",
    "methods": {},
    "version": 1
  }
}