{
  "contractName": "Transport",
  "abi": [
    {
      "inputs": [],
      "stateMutability": "nonpayable",
      "type": "constructor"
    },
    {
      "anonymous": false,
      "inputs": [
        {
          "indexed": false,
          "internalType": "string",
          "name": "state",
          "type": "string"
        }
      ],
      "name": "LogArrived",
      "type": "event"
    },
    {
      "anonymous": false,
      "inputs": [
        {
          "indexed": false,
          "internalType": "string",
          "name": "state",
          "type": "string"
        }
      ],
      "name": "LogDeparted",
      "type": "event"
    },
    {
      "anonymous": false,
      "inputs": [
        {
          "indexed": false,
          "internalType": "string",
          "name": "state",
          "type": "string"
        }
      ],
      "name": "LogWaiting",
      "type": "event"
    },
    {
      "anonymous": false,
      "inputs": [
        {
          "indexed": true,
          "internalType": "address",
          "name": "previousOwner",
          "type": "address"
        },
        {
          "indexed": true,
          "internalType": "address",
          "name": "newOwner",
          "type": "address"
        }
      ],
      "name": "OwnershipTransferred",
      "type": "event"
    },
    {
      "anonymous": false,
      "inputs": [
        {
          "indexed": false,
          "internalType": "address",
          "name": "_driverId",
          "type": "address"
        },
        {
          "indexed": false,
          "internalType": "string",
          "name": "message",
          "type": "string"
        }
      ],
      "name": "Registered",
      "type": "event"
    },
    {
      "inputs": [],
      "name": "driverId",
      "outputs": [
        {
          "internalType": "address",
          "name": "",
          "type": "address"
        }
      ],
      "stateMutability": "view",
      "type": "function"
    },
    {
      "inputs": [
        {
          "internalType": "address",
          "name": "",
          "type": "address"
        }
      ],
      "name": "drivers",
      "outputs": [
        {
          "internalType": "string",
          "name": "name",
          "type": "string"
        },
        {
          "internalType": "enum Transport.State",
          "name": "state",
          "type": "uint8"
        },
        {
          "internalType": "address",
          "name": "_driverId",
          "type": "address"
        }
      ],
      "stateMutability": "view",
      "type": "function"
    },
    {
      "inputs": [],
      "name": "owner",
      "outputs": [
        {
          "internalType": "address",
          "name": "",
          "type": "address"
        }
      ],
      "stateMutability": "view",
      "type": "function"
    },
    {
      "inputs": [],
      "name": "renounceOwnership",
      "outputs": [],
      "stateMutability": "nonpayable",
      "type": "function"
    },
    {
      "inputs": [
        {
          "internalType": "address",
          "name": "newOwner",
          "type": "address"
        }
      ],
      "name": "transferOwnership",
      "outputs": [],
      "stateMutability": "nonpayable",
      "type": "function"
    },
    {
      "inputs": [
        {
          "internalType": "string",
          "name": "_name",
          "type": "string"
        }
      ],
      "name": "setDriver",
      "outputs": [
        {
          "internalType": "bool",
          "name": "",
          "type": "bool"
        }
      ],
      "stateMutability": "nonpayable",
      "type": "function"
    },
    {
      "inputs": [],
      "name": "getDriver",
      "outputs": [
        {
          "internalType": "string",
          "name": "name",
          "type": "string"
        },
        {
          "internalType": "uint256",
          "name": "state",
          "type": "uint256"
        },
        {
          "internalType": "address",
          "name": "_driverId",
          "type": "address"
        }
      ],
      "stateMutability": "view",
      "type": "function"
    },
    {
      "inputs": [],
      "name": "changeStateDeparted",
      "outputs": [],
      "stateMutability": "nonpayable",
      "type": "function"
    },
    {
      "inputs": [],
      "name": "changeStateArrived",
      "outputs": [],
      "stateMutability": "nonpayable",
      "type": "function"
    },
    {
      "inputs": [
        {
          "internalType": "address payable",
          "name": "_driverId",
          "type": "address"
        }
      ],
      "name": "sendPayment",
      "outputs": [],
      "stateMutability": "payable",
      "type": "function"
    }
  ],
  "bytecode": "0x60806040523480156200001157600080fd5b506200003262000026620000c760201b60201c565b620000cf60201b60201c565b62000042620000c760201b60201c565b73ffffffffffffffffffffffffffffffffffffffff16620000686200019360201b60201c565b73ffffffffffffffffffffffffffffffffffffffff1614620000c1576040517f08c379a0000000000000000000000000000000000000000000000000000000008152600401620000b890620001fe565b60405180910390fd5b62000231565b600033905090565b60008060009054906101000a900473ffffffffffffffffffffffffffffffffffffffff169050816000806101000a81548173ffffffffffffffffffffffffffffffffffffffff021916908373ffffffffffffffffffffffffffffffffffffffff1602179055508173ffffffffffffffffffffffffffffffffffffffff168173ffffffffffffffffffffffffffffffffffffffff167f8be0079c531659141344cd1fd0a4f28419497f9722a3daafe3b4186f6b6457e060405160405180910390a35050565b60008060009054906101000a900473ffffffffffffffffffffffffffffffffffffffff16905090565b6000620001cb60208362000220565b91507f4f776e61626c653a2063616c6c6572206973206e6f7420746865206f776e65726000830152602082019050919050565b600060208201905081810360008301526200021981620001bc565b9050919050565b600082825260208201905092915050565b6115e880620002416000396000f3fe6080604052600436106100915760003560e01c80638a7644a8116100595780638a7644a81461016d5780638da5cb5b14610189578063a1694a77146101b4578063b0b913f8146101df578063f2fde38b146101f657610091565b8063048a829214610096578063446db8a7146100d35780634aa6018614610100578063715018a61461013f57806379f5bc3c14610156575b600080fd5b3480156100a257600080fd5b506100bd60048036038101906100b89190610eec565b61021f565b6040516100ca9190611200565b60405180910390f35b3480156100df57600080fd5b506100e86104a3565b6040516100f793929190611259565b60405180910390f35b34801561010c57600080fd5b5061012760048036038101906101229190610e9a565b61066d565b6040516101369392919061121b565b60405180910390f35b34801561014b57600080fd5b5061015461074c565b005b34801561016257600080fd5b5061016b6107d4565b005b61018760048036038101906101829190610ec3565b610939565b005b34801561019557600080fd5b5061019e6109ec565b6040516101ab91906111b7565b60405180910390f35b3480156101c057600080fd5b506101c9610a15565b6040516101d691906111b7565b60405180910390f35b3480156101eb57600080fd5b506101f4610a3b565b005b34801561020257600080fd5b5061021d60048036038101906102189190610e9a565b610ba1565b005b600033600160006101000a81548173ffffffffffffffffffffffffffffffffffffffff021916908373ffffffffffffffffffffffffffffffffffffffff1602179055506040518060600160405280838152602001600060028111156102ad577f4e487b7100000000000000000000000000000000000000000000000000000000600052602160045260246000fd5b8152602001600160009054906101000a900473ffffffffffffffffffffffffffffffffffffffff1673ffffffffffffffffffffffffffffffffffffffff1681525060026000600160009054906101000a900473ffffffffffffffffffffffffffffffffffffffff1673ffffffffffffffffffffffffffffffffffffffff1673ffffffffffffffffffffffffffffffffffffffff168152602001908152602001600020600082015181600001908051906020019061036b929190610d65565b5060208201518160010160006101000a81548160ff021916908360028111156103bd577f4e487b7100000000000000000000000000000000000000000000000000000000600052602160045260246000fd5b021790555060408201518160010160016101000a81548173ffffffffffffffffffffffffffffffffffffffff021916908373ffffffffffffffffffffffffffffffffffffffff1602179055509050507fb3eccf73f39b1c07947c780b2b39df2a1bb058b4037b0a42d0881ca1a028a132600160009054906101000a900473ffffffffffffffffffffffffffffffffffffffff1660405161045d91906111d2565b60405180910390a17f024592721beab8561d9cee6fabaef90bf7c4c6243c507ebc69685aabe6fce9ce60405161049290611317565b60405180910390a160019050919050565b606060008060026000600160009054906101000a900473ffffffffffffffffffffffffffffffffffffffff1673ffffffffffffffffffffffffffffffffffffffff1673ffffffffffffffffffffffffffffffffffffffff1681526020019081526020016000206000018054610517906114a0565b80601f0160208091040260200160405190810160405280929190818152602001828054610543906114a0565b80156105905780601f1061056557610100808354040283529160200191610590565b820191906000526020600020905b81548152906001019060200180831161057357829003601f168201915b5050505050925060026000600160009054906101000a900473ffffffffffffffffffffffffffffffffffffffff1673ffffffffffffffffffffffffffffffffffffffff1673ffffffffffffffffffffffffffffffffffffffff16815260200190815260200160002060010160009054906101000a900460ff166002811115610641577f4e487b7100000000000000000000000000000000000000000000000000000000600052602160045260246000fd5b9150600160009054906101000a900473ffffffffffffffffffffffffffffffffffffffff169050909192565b6002602052806000526040600020600091509050806000018054610690906114a0565b80601f01602080910402602001604051908101604052809291908181526020018280546106bc906114a0565b80156107095780601f106106de57610100808354040283529160200191610709565b820191906000526020600020905b8154815290600101906020018083116106ec57829003601f168201915b5050505050908060010160009054906101000a900460ff16908060010160019054906101000a900473ffffffffffffffffffffffffffffffffffffffff16905083565b610754610c99565b73ffffffffffffffffffffffffffffffffffffffff166107726109ec565b73ffffffffffffffffffffffffffffffffffffffff16146107c8576040517f08c379a00000000000000000000000000000000000000000000000000000000081526004016107bf906112f7565b60405180910390fd5b6107d26000610ca1565b565b6107dc610c99565b73ffffffffffffffffffffffffffffffffffffffff166107fa6109ec565b73ffffffffffffffffffffffffffffffffffffffff1614610850576040517f08c379a0000000000000000000000000000000000000000000000000000000008152600401610847906112f7565b60405180910390fd5b6002806000600160009054906101000a900473ffffffffffffffffffffffffffffffffffffffff1673ffffffffffffffffffffffffffffffffffffffff1673ffffffffffffffffffffffffffffffffffffffff16815260200190815260200160002060010160006101000a81548160ff021916908360028111156108fd577f4e487b7100000000000000000000000000000000000000000000000000000000600052602160045260246000fd5b02179055507f6c76356d2fb6de492c2744d7035cc83889f8af55340165ddf2dcfdcbb6839f4660405161092f90611337565b60405180910390a1565b6000808273ffffffffffffffffffffffffffffffffffffffff1634604051610960906111a2565b60006040518083038185875af1925050503d806000811461099d576040519150601f19603f3d011682016040523d82523d6000602084013e6109a2565b606091505b5091509150816109e7576040517f08c379a00000000000000000000000000000000000000000000000000000000081526004016109de906112d7565b60405180910390fd5b505050565b60008060009054906101000a900473ffffffffffffffffffffffffffffffffffffffff16905090565b600160009054906101000a900473ffffffffffffffffffffffffffffffffffffffff1681565b610a43610c99565b73ffffffffffffffffffffffffffffffffffffffff16610a616109ec565b73ffffffffffffffffffffffffffffffffffffffff1614610ab7576040517f08c379a0000000000000000000000000000000000000000000000000000000008152600401610aae906112f7565b60405180910390fd5b600160026000600160009054906101000a900473ffffffffffffffffffffffffffffffffffffffff1673ffffffffffffffffffffffffffffffffffffffff1673ffffffffffffffffffffffffffffffffffffffff16815260200190815260200160002060010160006101000a81548160ff02191690836002811115610b65577f4e487b7100000000000000000000000000000000000000000000000000000000600052602160045260246000fd5b02179055507f014822feac4c2fa47906d0f94c411817bc2da8155e1739d8807b4916f08c1f1b604051610b9790611297565b60405180910390a1565b610ba9610c99565b73ffffffffffffffffffffffffffffffffffffffff16610bc76109ec565b73ffffffffffffffffffffffffffffffffffffffff1614610c1d576040517f08c379a0000000000000000000000000000000000000000000000000000000008152600401610c14906112f7565b60405180910390fd5b600073ffffffffffffffffffffffffffffffffffffffff168173ffffffffffffffffffffffffffffffffffffffff161415610c8d576040517f08c379a0000000000000000000000000000000000000000000000000000000008152600401610c84906112b7565b60405180910390fd5b610c9681610ca1565b50565b600033905090565b60008060009054906101000a900473ffffffffffffffffffffffffffffffffffffffff169050816000806101000a81548173ffffffffffffffffffffffffffffffffffffffff021916908373ffffffffffffffffffffffffffffffffffffffff1602179055508173ffffffffffffffffffffffffffffffffffffffff168173ffffffffffffffffffffffffffffffffffffffff167f8be0079c531659141344cd1fd0a4f28419497f9722a3daafe3b4186f6b6457e060405160405180910390a35050565b828054610d71906114a0565b90600052602060002090601f016020900481019282610d935760008555610dda565b82601f10610dac57805160ff1916838001178555610dda565b82800160010185558215610dda579182015b82811115610dd9578251825591602001919060010190610dbe565b5b509050610de79190610deb565b5090565b5b80821115610e04576000816000905550600101610dec565b5090565b6000610e1b610e1684611388565b611357565b905082815260208101848484011115610e3357600080fd5b610e3e84828561145e565b509392505050565b600081359050610e5581611584565b92915050565b600081359050610e6a8161159b565b92915050565b600082601f830112610e8157600080fd5b8135610e91848260208601610e08565b91505092915050565b600060208284031215610eac57600080fd5b6000610eba84828501610e46565b91505092915050565b600060208284031215610ed557600080fd5b6000610ee384828501610e5b565b91505092915050565b600060208284031215610efe57600080fd5b600082013567ffffffffffffffff811115610f1857600080fd5b610f2484828501610e70565b91505092915050565b610f36816113df565b82525050565b610f4581611403565b82525050565b610f548161144c565b82525050565b6000610f65826113b8565b610f6f81856113ce565b9350610f7f81856020860161146d565b610f888161155f565b840191505092915050565b6000610fa06008836113ce565b91507f44657061727465640000000000000000000000000000000000000000000000006000830152602082019050919050565b6000610fe06026836113ce565b91507f4f776e61626c653a206e6577206f776e657220697320746865207a65726f206160008301527f64647265737300000000000000000000000000000000000000000000000000006020830152604082019050919050565b60006110466011836113ce565b91507f44726976657220726567697374657265640000000000000000000000000000006000830152602082019050919050565b60006110866014836113ce565b91507f4661696c656420746f2073656e642045746865720000000000000000000000006000830152602082019050919050565b60006110c66020836113ce565b91507f4f776e61626c653a2063616c6c6572206973206e6f7420746865206f776e65726000830152602082019050919050565b60006111066007836113ce565b91507f57616974696e67000000000000000000000000000000000000000000000000006000830152602082019050919050565b60006111466007836113ce565b91507f41727269766564000000000000000000000000000000000000000000000000006000830152602082019050919050565b60006111866000836113c3565b9150600082019050919050565b61119c81611442565b82525050565b60006111ad82611179565b9150819050919050565b60006020820190506111cc6000830184610f2d565b92915050565b60006040820190506111e76000830184610f2d565b81810360208301526111f881611039565b905092915050565b60006020820190506112156000830184610f3c565b92915050565b600060608201905081810360008301526112358186610f5a565b90506112446020830185610f4b565b6112516040830184610f2d565b949350505050565b600060608201905081810360008301526112738186610f5a565b90506112826020830185611193565b61128f6040830184610f2d565b949350505050565b600060208201905081810360008301526112b081610f93565b9050919050565b600060208201905081810360008301526112d081610fd3565b9050919050565b600060208201905081810360008301526112f081611079565b9050919050565b60006020820190508181036000830152611310816110b9565b9050919050565b60006020820190508181036000830152611330816110f9565b9050919050565b6000602082019050818103600083015261135081611139565b9050919050565b6000604051905081810181811067ffffffffffffffff8211171561137e5761137d611530565b5b8060405250919050565b600067ffffffffffffffff8211156113a3576113a2611530565b5b601f19601f8301169050602081019050919050565b600081519050919050565b600081905092915050565b600082825260208201905092915050565b60006113ea82611422565b9050919050565b60006113fc82611422565b9050919050565b60008115159050919050565b600081905061141d82611570565b919050565b600073ffffffffffffffffffffffffffffffffffffffff82169050919050565b6000819050919050565b60006114578261140f565b9050919050565b82818337600083830152505050565b60005b8381101561148b578082015181840152602081019050611470565b8381111561149a576000848401525b50505050565b600060028204905060018216806114b857607f821691505b602082108114156114cc576114cb611501565b5b50919050565b7f4e487b7100000000000000000000000000000000000000000000000000000000600052602160045260246000fd5b7f4e487b7100000000000000000000000000000000000000000000000000000000600052602260045260246000fd5b7f4e487b7100000000000000000000000000000000000000000000000000000000600052604160045260246000fd5b6000601f19601f8301169050919050565b60038110611581576115806114d2565b5b50565b61158d816113df565b811461159857600080fd5b50565b6115a4816113f1565b81146115af57600080fd5b5056fea2646970667358221220273e261ce03baf92a88fb4017b296e3dcc8dacaa95258e0d33d5adf58a21aa3064736f6c63430008000033",
  "immutableReferences": {},
  "source": "// SPDX-License-Identifier: MIT\npragma solidity ^0.8.0;\n\n/// @title Automatic payment execution for truck drivers\n/// @author Thuy Tien Nguyen Thi\n/// @notice You can use this contract for only the most basic simulation\n\nimport \"@openzeppelin/contracts/utils/Context.sol\";\nimport \"@openzeppelin/contracts/access/Ownable.sol\";\n\ncontract Transport is Ownable {\n    address public driverId;\n\n    struct Driver {\n        string name;\n        State state;\n        address _driverId; //to distinguish from global variable and avoid shadowing\n    }\n\n    ///@notice Event Logs for different states of driver\n    event LogWaiting(string state);\n    event LogArrived(string state);\n    event LogDeparted(string state);\n\n    event Registered(address _driverId, string message);\n\n    enum State {\n        waiting,\n        departed,\n        arrived\n    }\n\n    mapping(address => Driver) public drivers;\n\n    constructor() onlyOwner {}\n\n    ///@notice When driver registers, their state is set to waiting\n    function setDriver(string memory _name) public returns (bool) {\n        driverId = msg.sender;\n        drivers[driverId] = Driver({\n            name: _name,\n            state: State.waiting,\n            _driverId: driverId\n        });\n        emit Registered(driverId, \"Driver registered\");\n        emit LogWaiting(\"Waiting\");\n        return true;\n    }\n\n    ///@notice gets current driver who makes the call\n    function getDriver()\n        public\n        view\n        returns (\n            string memory name,\n            uint256 state,\n            address _driverId\n        )\n    {\n        name = drivers[driverId].name;\n        state = uint256(drivers[driverId].state);\n        _driverId = driverId;\n        return (name, state, _driverId);\n    }\n\n    function changeStateDeparted() public onlyOwner {\n        drivers[driverId].state = State.departed;\n        emit LogDeparted(\"Departed\");\n    }\n\n    function changeStateArrived() public onlyOwner {\n        drivers[driverId].state = State.arrived;\n        emit LogArrived(\"Arrived\");\n    }\n\n    ///@notice send Payment to driver\n    ///@notice function not used in contract as the contract itself received the funds,\n    ///@notice which was intended for the driver account\n    function sendPayment(address payable _driverId) public payable {\n        (bool sent, bytes memory data) = _driverId.call{value: msg.value}(\"\");\n        require(sent, \"Failed to send Ether\");\n    }\n}\n",
  "sourcePath": "/home/tien/DLT/ConsenSys/FinalProject/blockchain-developer-bootcamp-final-project/contracts/Transport.sol",
  "compiler": {
    "name": "solc",
    "version": "0.8.0+commit.c7dfd78e.Emscripten.clang"
  },
  "schemaVersion": "3.4.3",
  "updatedAt": "2022-01-14T23:04:56.987Z",
  "devdoc": {
    "kind": "dev",
    "methods": {
      "owner()": {
        "details": "Returns the address of the current owner."
      },
      "renounceOwnership()": {
        "details": "Leaves the contract without owner. It will not be possible to call `onlyOwner` functions anymore. Can only be called by the current owner. NOTE: Renouncing ownership will leave the contract without an owner, thereby removing any functionality that is only available to the owner."
      },
      "transferOwnership(address)": {
        "details": "Transfers ownership of the contract to a new account (`newOwner`). Can only be called by the current owner."
      }
    },
    "version": 1
  },
  "userdoc": {
    "events": {
      "LogWaiting(string)": {
        "notice": "Event Logs for different states of driver"
      }
    },
    "kind": "user",
    "methods": {
      "getDriver()": {
        "notice": "gets current driver who makes the call"
      },
      "sendPayment(address)": {
        "notice": "send Payment to driverfunction not used in contract as the contract itself received the funds,which was intended for the driver account"
      },
      "setDriver(string)": {
        "notice": "When driver registers, their state is set to waiting"
      }
    },
    "version": 1
  }
}