{
  "contractName": "Transport",
  "abi": [
    {
      "inputs": [],
      "stateMutability": "nonpayable",
      "type": "constructor"
    },
    {
      "anonymous": false,
      "inputs": [
        {
          "indexed": false,
          "internalType": "string",
          "name": "state",
          "type": "string"
        }
      ],
      "name": "LogArrived",
      "type": "event"
    },
    {
      "anonymous": false,
      "inputs": [
        {
          "indexed": false,
          "internalType": "string",
          "name": "state",
          "type": "string"
        }
      ],
      "name": "LogDeparted",
      "type": "event"
    },
    {
      "anonymous": false,
      "inputs": [
        {
          "indexed": false,
          "internalType": "string",
          "name": "state",
          "type": "string"
        }
      ],
      "name": "LogWaiting",
      "type": "event"
    },
    {
      "anonymous": false,
      "inputs": [
        {
          "indexed": true,
          "internalType": "address",
          "name": "previousOwner",
          "type": "address"
        },
        {
          "indexed": true,
          "internalType": "address",
          "name": "newOwner",
          "type": "address"
        }
      ],
      "name": "OwnershipTransferred",
      "type": "event"
    },
    {
      "anonymous": false,
      "inputs": [
        {
          "indexed": false,
          "internalType": "address",
          "name": "_driverId",
          "type": "address"
        },
        {
          "indexed": false,
          "internalType": "string",
          "name": "message",
          "type": "string"
        }
      ],
      "name": "Registered",
      "type": "event"
    },
    {
      "inputs": [],
      "name": "driverId",
      "outputs": [
        {
          "internalType": "address",
          "name": "",
          "type": "address"
        }
      ],
      "stateMutability": "view",
      "type": "function",
      "constant": true
    },
    {
      "inputs": [
        {
          "internalType": "address",
          "name": "",
          "type": "address"
        }
      ],
      "name": "drivers",
      "outputs": [
        {
          "internalType": "string",
          "name": "name",
          "type": "string"
        },
        {
          "internalType": "enum Transport.State",
          "name": "state",
          "type": "uint8"
        },
        {
          "internalType": "address",
          "name": "_driverId",
          "type": "address"
        }
      ],
      "stateMutability": "view",
      "type": "function",
      "constant": true
    },
    {
      "inputs": [],
      "name": "owner",
      "outputs": [
        {
          "internalType": "address",
          "name": "",
          "type": "address"
        }
      ],
      "stateMutability": "view",
      "type": "function",
      "constant": true
    },
    {
      "inputs": [],
      "name": "renounceOwnership",
      "outputs": [],
      "stateMutability": "nonpayable",
      "type": "function"
    },
    {
      "inputs": [
        {
          "internalType": "address",
          "name": "newOwner",
          "type": "address"
        }
      ],
      "name": "transferOwnership",
      "outputs": [],
      "stateMutability": "nonpayable",
      "type": "function"
    },
    {
      "inputs": [
        {
          "internalType": "string",
          "name": "_name",
          "type": "string"
        }
      ],
      "name": "setDriver",
      "outputs": [],
      "stateMutability": "nonpayable",
      "type": "function"
    },
    {
      "inputs": [],
      "name": "getDriver",
      "outputs": [
        {
          "internalType": "string",
          "name": "name",
          "type": "string"
        },
        {
          "internalType": "uint256",
          "name": "state",
          "type": "uint256"
        },
        {
          "internalType": "address",
          "name": "_driverId",
          "type": "address"
        }
      ],
      "stateMutability": "view",
      "type": "function",
      "constant": true
    },
    {
      "inputs": [],
      "name": "changeStateDeparted",
      "outputs": [],
      "stateMutability": "nonpayable",
      "type": "function"
    },
    {
      "inputs": [],
      "name": "changeStateArrived",
      "outputs": [],
      "stateMutability": "nonpayable",
      "type": "function"
    },
    {
      "inputs": [
        {
          "internalType": "address payable",
          "name": "_driverId",
          "type": "address"
        }
      ],
      "name": "sendPayment",
      "outputs": [],
      "stateMutability": "payable",
      "type": "function",
      "payable": true
    }
  ],
  "bytecode": "0x60806040523480156200001157600080fd5b506200003262000026620000c760201b60201c565b620000cf60201b60201c565b62000042620000c760201b60201c565b73ffffffffffffffffffffffffffffffffffffffff16620000686200019360201b60201c565b73ffffffffffffffffffffffffffffffffffffffff1614620000c1576040517f08c379a0000000000000000000000000000000000000000000000000000000008152600401620000b890620001fe565b60405180910390fd5b62000231565b600033905090565b60008060009054906101000a900473ffffffffffffffffffffffffffffffffffffffff169050816000806101000a81548173ffffffffffffffffffffffffffffffffffffffff021916908373ffffffffffffffffffffffffffffffffffffffff1602179055508173ffffffffffffffffffffffffffffffffffffffff168173ffffffffffffffffffffffffffffffffffffffff167f8be0079c531659141344cd1fd0a4f28419497f9722a3daafe3b4186f6b6457e060405160405180910390a35050565b60008060009054906101000a900473ffffffffffffffffffffffffffffffffffffffff16905090565b6000620001cb60208362000220565b91507f4f776e61626c653a2063616c6c6572206973206e6f7420746865206f776e65726000830152602082019050919050565b600060208201905081810360008301526200021981620001bc565b9050919050565b600082825260208201905092915050565b61159680620002416000396000f3fe6080604052600436106100915760003560e01c80638a7644a8116100595780638a7644a8146101595780638da5cb5b14610175578063a1694a77146101a0578063b0b913f8146101cb578063f2fde38b146101e257610091565b8063048a829214610096578063446db8a7146100bf5780634aa60186146100ec578063715018a61461012b57806379f5bc3c14610142575b600080fd5b3480156100a257600080fd5b506100bd60048036038101906100b89190610ed0565b61020b565b005b3480156100cb57600080fd5b506100d4610487565b6040516100e393929190611213565b60405180910390f35b3480156100f857600080fd5b50610113600480360381019061010e9190610e7e565b610651565b604051610122939291906111d5565b60405180910390f35b34801561013757600080fd5b50610140610730565b005b34801561014e57600080fd5b506101576107b8565b005b610173600480360381019061016e9190610ea7565b61091d565b005b34801561018157600080fd5b5061018a6109d0565b604051610197919061118c565b60405180910390f35b3480156101ac57600080fd5b506101b56109f9565b6040516101c2919061118c565b60405180910390f35b3480156101d757600080fd5b506101e0610a1f565b005b3480156101ee57600080fd5b5061020960048036038101906102049190610e7e565b610b85565b005b33600160006101000a81548173ffffffffffffffffffffffffffffffffffffffff021916908373ffffffffffffffffffffffffffffffffffffffff160217905550604051806060016040528082815260200160006002811115610297577f4e487b7100000000000000000000000000000000000000000000000000000000600052602160045260246000fd5b8152602001600160009054906101000a900473ffffffffffffffffffffffffffffffffffffffff1673ffffffffffffffffffffffffffffffffffffffff1681525060026000600160009054906101000a900473ffffffffffffffffffffffffffffffffffffffff1673ffffffffffffffffffffffffffffffffffffffff1673ffffffffffffffffffffffffffffffffffffffff1681526020019081526020016000206000820151816000019080519060200190610355929190610d49565b5060208201518160010160006101000a81548160ff021916908360028111156103a7577f4e487b7100000000000000000000000000000000000000000000000000000000600052602160045260246000fd5b021790555060408201518160010160016101000a81548173ffffffffffffffffffffffffffffffffffffffff021916908373ffffffffffffffffffffffffffffffffffffffff1602179055509050507fb3eccf73f39b1c07947c780b2b39df2a1bb058b4037b0a42d0881ca1a028a132600160009054906101000a900473ffffffffffffffffffffffffffffffffffffffff1660405161044791906111a7565b60405180910390a17f024592721beab8561d9cee6fabaef90bf7c4c6243c507ebc69685aabe6fce9ce60405161047c906112d1565b60405180910390a150565b606060008060026000600160009054906101000a900473ffffffffffffffffffffffffffffffffffffffff1673ffffffffffffffffffffffffffffffffffffffff1673ffffffffffffffffffffffffffffffffffffffff16815260200190815260200160002060000180546104fb9061144e565b80601f01602080910402602001604051908101604052809291908181526020018280546105279061144e565b80156105745780601f1061054957610100808354040283529160200191610574565b820191906000526020600020905b81548152906001019060200180831161055757829003601f168201915b5050505050925060026000600160009054906101000a900473ffffffffffffffffffffffffffffffffffffffff1673ffffffffffffffffffffffffffffffffffffffff1673ffffffffffffffffffffffffffffffffffffffff16815260200190815260200160002060010160009054906101000a900460ff166002811115610625577f4e487b7100000000000000000000000000000000000000000000000000000000600052602160045260246000fd5b9150600160009054906101000a900473ffffffffffffffffffffffffffffffffffffffff169050909192565b60026020528060005260406000206000915090508060000180546106749061144e565b80601f01602080910402602001604051908101604052809291908181526020018280546106a09061144e565b80156106ed5780601f106106c2576101008083540402835291602001916106ed565b820191906000526020600020905b8154815290600101906020018083116106d057829003601f168201915b5050505050908060010160009054906101000a900460ff16908060010160019054906101000a900473ffffffffffffffffffffffffffffffffffffffff16905083565b610738610c7d565b73ffffffffffffffffffffffffffffffffffffffff166107566109d0565b73ffffffffffffffffffffffffffffffffffffffff16146107ac576040517f08c379a00000000000000000000000000000000000000000000000000000000081526004016107a3906112b1565b60405180910390fd5b6107b66000610c85565b565b6107c0610c7d565b73ffffffffffffffffffffffffffffffffffffffff166107de6109d0565b73ffffffffffffffffffffffffffffffffffffffff1614610834576040517f08c379a000000000000000000000000000000000000000000000000000000000815260040161082b906112b1565b60405180910390fd5b6002806000600160009054906101000a900473ffffffffffffffffffffffffffffffffffffffff1673ffffffffffffffffffffffffffffffffffffffff1673ffffffffffffffffffffffffffffffffffffffff16815260200190815260200160002060010160006101000a81548160ff021916908360028111156108e1577f4e487b7100000000000000000000000000000000000000000000000000000000600052602160045260246000fd5b02179055507f6c76356d2fb6de492c2744d7035cc83889f8af55340165ddf2dcfdcbb6839f46604051610913906112f1565b60405180910390a1565b6000808273ffffffffffffffffffffffffffffffffffffffff163460405161094490611177565b60006040518083038185875af1925050503d8060008114610981576040519150601f19603f3d011682016040523d82523d6000602084013e610986565b606091505b5091509150816109cb576040517f08c379a00000000000000000000000000000000000000000000000000000000081526004016109c290611291565b60405180910390fd5b505050565b60008060009054906101000a900473ffffffffffffffffffffffffffffffffffffffff16905090565b600160009054906101000a900473ffffffffffffffffffffffffffffffffffffffff1681565b610a27610c7d565b73ffffffffffffffffffffffffffffffffffffffff16610a456109d0565b73ffffffffffffffffffffffffffffffffffffffff1614610a9b576040517f08c379a0000000000000000000000000000000000000000000000000000000008152600401610a92906112b1565b60405180910390fd5b600160026000600160009054906101000a900473ffffffffffffffffffffffffffffffffffffffff1673ffffffffffffffffffffffffffffffffffffffff1673ffffffffffffffffffffffffffffffffffffffff16815260200190815260200160002060010160006101000a81548160ff02191690836002811115610b49577f4e487b7100000000000000000000000000000000000000000000000000000000600052602160045260246000fd5b02179055507f014822feac4c2fa47906d0f94c411817bc2da8155e1739d8807b4916f08c1f1b604051610b7b90611251565b60405180910390a1565b610b8d610c7d565b73ffffffffffffffffffffffffffffffffffffffff16610bab6109d0565b73ffffffffffffffffffffffffffffffffffffffff1614610c01576040517f08c379a0000000000000000000000000000000000000000000000000000000008152600401610bf8906112b1565b60405180910390fd5b600073ffffffffffffffffffffffffffffffffffffffff168173ffffffffffffffffffffffffffffffffffffffff161415610c71576040517f08c379a0000000000000000000000000000000000000000000000000000000008152600401610c6890611271565b60405180910390fd5b610c7a81610c85565b50565b600033905090565b60008060009054906101000a900473ffffffffffffffffffffffffffffffffffffffff169050816000806101000a81548173ffffffffffffffffffffffffffffffffffffffff021916908373ffffffffffffffffffffffffffffffffffffffff1602179055508173ffffffffffffffffffffffffffffffffffffffff168173ffffffffffffffffffffffffffffffffffffffff167f8be0079c531659141344cd1fd0a4f28419497f9722a3daafe3b4186f6b6457e060405160405180910390a35050565b828054610d559061144e565b90600052602060002090601f016020900481019282610d775760008555610dbe565b82601f10610d9057805160ff1916838001178555610dbe565b82800160010185558215610dbe579182015b82811115610dbd578251825591602001919060010190610da2565b5b509050610dcb9190610dcf565b5090565b5b80821115610de8576000816000905550600101610dd0565b5090565b6000610dff610dfa84611342565b611311565b905082815260208101848484011115610e1757600080fd5b610e2284828561140c565b509392505050565b600081359050610e3981611532565b92915050565b600081359050610e4e81611549565b92915050565b600082601f830112610e6557600080fd5b8135610e75848260208601610dec565b91505092915050565b600060208284031215610e9057600080fd5b6000610e9e84828501610e2a565b91505092915050565b600060208284031215610eb957600080fd5b6000610ec784828501610e3f565b91505092915050565b600060208284031215610ee257600080fd5b600082013567ffffffffffffffff811115610efc57600080fd5b610f0884828501610e54565b91505092915050565b610f1a81611399565b82525050565b610f29816113fa565b82525050565b6000610f3a82611372565b610f448185611388565b9350610f5481856020860161141b565b610f5d8161150d565b840191505092915050565b6000610f75600883611388565b91507f44657061727465640000000000000000000000000000000000000000000000006000830152602082019050919050565b6000610fb5602683611388565b91507f4f776e61626c653a206e6577206f776e657220697320746865207a65726f206160008301527f64647265737300000000000000000000000000000000000000000000000000006020830152604082019050919050565b600061101b601183611388565b91507f44726976657220726567697374657265640000000000000000000000000000006000830152602082019050919050565b600061105b601483611388565b91507f4661696c656420746f2073656e642045746865720000000000000000000000006000830152602082019050919050565b600061109b602083611388565b91507f4f776e61626c653a2063616c6c6572206973206e6f7420746865206f776e65726000830152602082019050919050565b60006110db600783611388565b91507f57616974696e67000000000000000000000000000000000000000000000000006000830152602082019050919050565b600061111b600783611388565b91507f41727269766564000000000000000000000000000000000000000000000000006000830152602082019050919050565b600061115b60008361137d565b9150600082019050919050565b611171816113f0565b82525050565b60006111828261114e565b9150819050919050565b60006020820190506111a16000830184610f11565b92915050565b60006040820190506111bc6000830184610f11565b81810360208301526111cd8161100e565b905092915050565b600060608201905081810360008301526111ef8186610f2f565b90506111fe6020830185610f20565b61120b6040830184610f11565b949350505050565b6000606082019050818103600083015261122d8186610f2f565b905061123c6020830185611168565b6112496040830184610f11565b949350505050565b6000602082019050818103600083015261126a81610f68565b9050919050565b6000602082019050818103600083015261128a81610fa8565b9050919050565b600060208201905081810360008301526112aa8161104e565b9050919050565b600060208201905081810360008301526112ca8161108e565b9050919050565b600060208201905081810360008301526112ea816110ce565b9050919050565b6000602082019050818103600083015261130a8161110e565b9050919050565b6000604051905081810181811067ffffffffffffffff82111715611338576113376114de565b5b8060405250919050565b600067ffffffffffffffff82111561135d5761135c6114de565b5b601f19601f8301169050602081019050919050565b600081519050919050565b600081905092915050565b600082825260208201905092915050565b60006113a4826113d0565b9050919050565b60006113b6826113d0565b9050919050565b60008190506113cb8261151e565b919050565b600073ffffffffffffffffffffffffffffffffffffffff82169050919050565b6000819050919050565b6000611405826113bd565b9050919050565b82818337600083830152505050565b60005b8381101561143957808201518184015260208101905061141e565b83811115611448576000848401525b50505050565b6000600282049050600182168061146657607f821691505b6020821081141561147a576114796114af565b5b50919050565b7f4e487b7100000000000000000000000000000000000000000000000000000000600052602160045260246000fd5b7f4e487b7100000000000000000000000000000000000000000000000000000000600052602260045260246000fd5b7f4e487b7100000000000000000000000000000000000000000000000000000000600052604160045260246000fd5b6000601f19601f8301169050919050565b6003811061152f5761152e611480565b5b50565b61153b81611399565b811461154657600080fd5b50565b611552816113ab565b811461155d57600080fd5b5056fea2646970667358221220a1ab56564cc5a2a9f8603f985b3ee60213462e7119d0871e460819df021ef5f264736f6c63430008000033",
  "immutableReferences": {},
  "source": "// SPDX-License-Identifier: MIT\npragma solidity >=0.4.22 <0.9.0;\n\nimport \"@openzeppelin/contracts/utils/Context.sol\";\nimport \"@openzeppelin/contracts/access/Ownable.sol\";\n\ncontract Transport is Ownable {\n    /// @notice Register driver\n    //truck driver, can receive ether\n    address public driverId;\n\n    struct Driver {\n        string name;\n        State state;\n        address _driverId; //to distinguish from global variable and avoid shadowing\n    }\n\n    event LogWaiting(string state);\n    event LogArrived(string state);\n    event LogDeparted(string state);\n    event Registered(address _driverId, string message);\n\n    ///state of Truck Driver\n    enum State {\n        waiting,\n        departed,\n        arrived\n    }\n\n    //contract which can receive ether must at least have a fallback or receive function\n    //external = contract can only be called from outside and not inside functions within the contract\n    //fallback() external payable;\n\n    ///table address to Driver\n    ///saves all drivers ever registered\n    mapping(address => Driver) public drivers;\n\n    ///driverId will be injected via MetaMask\n    function setDriver(string memory _name) public {\n        driverId = msg.sender;\n        drivers[driverId] = Driver({\n            name: _name,\n            state: State.waiting,\n            _driverId: driverId\n        });\n        emit Registered(driverId, \"Driver registered\");\n        emit LogWaiting(\"Waiting\");\n    }\n\n    //no argument as driverId is a global variable\n    //driverId included cuz when other address calls\n    //gets Current driver who makes the call\n    function getDriver()\n        public\n        view\n        returns (\n            string memory name,\n            uint256 state,\n            address _driverId\n        )\n    {\n        name = drivers[driverId].name;\n        state = uint256(drivers[driverId].state);\n        _driverId = driverId;\n        return (name, state, _driverId);\n    }\n\n    function changeStateDeparted() public onlyOwner {\n        drivers[driverId].state = State.departed;\n        emit LogDeparted(\"Departed\");\n    }\n\n    function changeStateArrived() public onlyOwner {\n        drivers[driverId].state = State.arrived;\n        emit LogArrived(\"Arrived\");\n    }\n\n    function sendPayment(address payable _driverId) public payable {\n        // Call returns a boolean value indicating success or failure.\n        // This is the current recommended method to use.\n        //(bool sent, bytes memory data) = _driverId.call{value: msg.value}(\"\");\n        (bool sent, bytes memory data) = _driverId.call{value: msg.value}(\"\");\n        require(sent, \"Failed to send Ether\");\n    }\n\n    constructor() onlyOwner {}\n}\n",
  "sourcePath": "/home/tien/DLT/ConsenSys/FinalProject/blockchain-developer-bootcamp-final-project/contracts/Transport.sol",
  "compiler": {
    "name": "solc",
    "version": "0.8.0+commit.c7dfd78e.Emscripten.clang"
  },
  "schemaVersion": "3.4.3",
  "updatedAt": "2022-01-08T23:37:59.832Z",
  "networkType": "ethereum",
  "devdoc": {
    "kind": "dev",
    "methods": {
      "owner()": {
        "details": "Returns the address of the current owner."
      },
      "renounceOwnership()": {
        "details": "Leaves the contract without owner. It will not be possible to call `onlyOwner` functions anymore. Can only be called by the current owner. NOTE: Renouncing ownership will leave the contract without an owner, thereby removing any functionality that is only available to the owner."
      },
      "transferOwnership(address)": {
        "details": "Transfers ownership of the contract to a new account (`newOwner`). Can only be called by the current owner."
      }
    },
    "version": 1
  },
  "userdoc": {
    "kind": "user",
    "methods": {
      "driverId()": {
        "notice": "Register driver"
      },
      "drivers(address)": {
        "notice": "table address to Driver saves all drivers ever registered"
      },
      "setDriver(string)": {
        "notice": "driverId will be injected via MetaMask"
      }
    },
    "version": 1
  }
}